:020000040800F2
:10000000882F0020F9020008970D0008310D000824
:10001000950D0008EF040008510E000800000000D4
:10002000000000000000000000000000390200088D
:10003000F10400080000000095020008990D000876
:100040001303000813030008130300081303000838
:100050001303000813030008130300081303000828
:100060001303000813030008130300081303000818
:100070001303000813030008130300081303000808
:100080001303000813030008130300080000000016
:100090000000000000000000000000001303000842
:1000A00013030008130300081303000813030008D8
:1000B00013030008130300081303000813030008C8
:1000C00013030008130300081303000813030008B8
:1000D00013030008130300081303000800000000C6
:1000E00013030008130300081303000800000000B6
:1000F00000000000000000000000000013030008E2
:100100000000000013030008130300081303000895
:1001100000000000000000000000000000000000DF
:100120001303000813030008130300081303000857
:1001300013030008000000000000000000000000A1
:100140000000000000000000000000001303000891
:100150001303000813030008130300081303000827
:100160001303000813030008000000000000000053
:10017000000000000000000000000000000000007F
:100180000000000013030008000000000000000051
:10019000130300081303000800F002F800F03CF815
:1001A0000AA090E8000C82448344AAF10107DA45D2
:1001B00001D100F031F8AFF2090EBAE80F0013F0E8
:1001C000010F18BFFB1A43F0010318478014000009
:1001D000A0140000103A24BF78C878C1FAD852079A
:1001E00024BF30C830C144BF04680C6070470000B1
:1001F0000023002400250026103A28BF78C1FBD830
:10020000520728BF30C148BF0B6070471FB501F0CF
:100210000FFA1FBD10B510BD00F02FF91146FFF702
:10022000F5FF00F035FE00F04DF903B4FFF7F2FFE3
:1002300003BC00F055F900002C4B19680868B0E8C1
:10024000F04F80F30988BFF36F8F4FF0000080F309
:10025000118870470000000008480068006880F3BB
:1002600008884FF0000080F3148862B661B6BFF3CF
:100270004F8FBFF36F8F00DF00BF00BF08ED00E0BE
:10028000DFF80C00016841F470010160704700BFA5
:1002900088ED00E0EFF30980BFF36F8F134B1A680E
:1002A0001EF0100F08BF20ED108A20E9F04F1060FB
:1002B00009B44FF0BF0080F31188BFF34F8FBFF335
:1002C0006F8F01F029F84FF0000080F3118809BC0E
:1002D00019680868B0E8F04F1EF0100F08BFB0ECC6
:1002E000108A80F30988BFF36F8F704714000020D5
:1002F000EFF3058070470000094880470948004730
:10030000FEE7FEE7FEE7FEE7FEE7FEE7FEE7FEE7C5
:10031000FEE7FEE704480549054A064B7047000022
:10032000410E00089901000888290020882F00202C
:10033000882B0020882B002053EA020C00F06980F3
:100340002DE9F04B4FF00006002B1FBFB3FA83F5E9
:1003500003FA05F424FA05F65E4012BF1643B2FA1A
:1003600082F502FA05F4C5F120051EBF22FA05FC4C
:1003700044EA0C04203556EA044C4FEA144418BFF2
:10038000641C4FF000084FF00009904271EB030C21
:1003900039D3002919BFB1FA81F701FA07F6B0FA8B
:1003A00080F700FA07F6C7F120071EBF20FA07FC06
:1003B00046EA0C062037B6FBF4FCA7EB0507103F16
:1003C00007F01F0BCBF120060CFA0BFB2CFA06F6FC
:1003D00044BFB3460026202FA4BF5E464FF0000B5B
:1003E0005BEA060C08BF4FF0010B19EB0B09ABFBE6
:1003F000027C48EB0608C01B06FB02CC0BFB03CCBF
:1004000071EB0C01C1E70B46024641464846BDE888
:10041000F08B13B54FF000004FF00001AFF30080F8
:10042000BDE81C4070474FF0000200B513469446EB
:100430009646203922BFA0E80C50A0E80C50B1F13C
:100440002001BFF4F7AF090728BFA0E80C5048BF50
:100450000CC05DF804EB890028BF40F8042B08BFEE
:10046000704748BF20F8022B11F0804F18BF00F8EA
:10047000012B7047704770477047754600F02CF8A5
:10048000AE4605006946534620F00700854618B081
:1004900020B5FFF73FFFBDE820404FF000064FF0CA
:1004A00000074FF000084FF0000B21F00701AC46A9
:1004B000ACE8C009ACE8C009ACE8C009ACE8C009C8
:1004C0008D46704710B50446AFF300802046BDE866
:1004D0001040FFF7AABE00000048704728290020FE
:1004E00001491820ABBEFEE7260002007047FEE778
:1004F000704700002DE9F84FDFF8B8A10022012471
:100500000AF1040B03254FF00F090BF1040E00BF95
:100510000B6804FA02F63340B34273D10F7907F047
:100520000307012F01D0022F16D187684FEA420836
:1005300005FA08FC27EA0C07D1F80CC00CFA08FCF5
:100540004CEA070CC0F808C04768B7430E79C6F3F9
:10055000001696403E4346600E79F643B6070DD02E
:10056000C768560005FA06FC27EA0C07D1F808C050
:100570000CFA06FC4CEA070CC0F80CC00E7906F029
:100580000306022E10D1D60800EB8608D8F82060AA
:1005900057074FEAD76C09FA0CF7BE430F6907FA01
:1005A0000CF73743C8F8207006684FEA420C05FA8A
:1005B0000CF7BE430F7907F0030707FA0CF7374330
:1005C00007604E6816F4403F6DD03B4E376847F4E5
:1005D00080473760366822F0030706F480460096AD
:1005E000364E07EB060CDCF8086897073F0F09FA50
:1005F00007F826EA0806DFF8C880404503D14FF027
:1006000000081EE04FE0DFF8BC80404502D14FF00B
:10061000010816E0DFF8B080404502D14FF0020833
:100620000FE0DFF8A880404502D14FF0030808E052
:10063000DFF89C80404502D14FF0040801E04FF004
:10064000070808FA07F848EA0608CCF80888DAF834
:1006500000605746D1F804C09E435FEACC3C00D509
:100660001E433E60DBF800605F46D1F804C09E4345
:100670005FEA8C3C00D51E433E60DEF800607746A2
:10068000D1F804C09E435FEACC2C00D51E433E60E7
:10069000084F0C373E68D1F804C09E435FEA8C2CAB
:1006A00000D51E433E60521C102AFFF431AFBDE856
:1006B000F88F0000003C0140443802400030014007
:1006C000000002400004024000080240000C02400A
:1006D00000100240426921EA02030A4043EA024153
:1006E000816170470AB1816170470904FBE700002E
:1006F0000148806870470000040000200B4810B5D6
:10070000016841F400710160016841F48061016099
:10071000016841F480710160032000F061F80F204E
:1007200000F006F800F024F8002010BD003C024064
:1007300070B50D4D04464FF47A712878B1FBF0F096
:100740000A490968B1FBF0F000F0DEFA48B9102C54
:1007500007D200222146501E00F022F800206C60D3
:1007600070BD012070BD00000400002010000020BA
:100770000A4808B5016841F480410160006800F44E
:10078000804000900548001F016841F080510160E1
:10079000006800F08050009008BD0000443802401E
:1007A000F0B40E4B1B680C46C3F30223C3F10705DC
:1007B000042D00D90425191D072901D2002300E0CA
:1007C000DB1E012606FA05F1491E214099409E4094
:1007D000761E16403143F0BC00F03BBB0CED00E050
:1007E000064900F0070208684FF6FF03184040EA88
:1007F0000220034A10430860704700000CED00E03F
:100800000000FA052DE9F0470E46050065D0DFF837
:100810001481D8F80000F7B200F00700B04207D208
:1008200088F80070D8F8000000F00700B04254D1FA
:1008300028683D4C810712D5400703D5206840F455
:10084000E05020602878000703D5206840F460401D
:1008500020602068A96820F0F00008432060287814
:10086000C0072DD0304968680839012812D0022805
:1008700013D0032811D00968890700292DDA2168CF
:1008800021F0030101432160FFF732FF814641F26D
:10089000883A0EE009688903EFE709688901ECE707
:1008A000FFF726FFA0EB0901514502D90320BDE85F
:1008B000F0872068696800F00C00B0EB810FEFD181
:1008C000D8F80010404601F00701B14207D907707F
:1008D000006800F00700B04201D00120E7E7287867
:1008E000400705D52068E96820F4E05008432060FF
:1008F0002878000706D52068296920F4604040EA7E
:10090000C100206000F018F82168084AC1F3031103
:10091000515CC8400649086006480068FFF708FFB8
:100920000020C4E7003C0240083802403A160008A4
:100930001000002008000020154810B5006810F0D5
:100940000C02144813D01449042A0FD0082A0ED1DF
:100950000F4C241F2268236802F03F025B0207D578
:100960002068C0F38810A0FB010106E0084610BD16
:100970002168C1F38811A1FB00010023FFF7DCFC13
:100980002168C1F30141491C4900B0FBF1F010BDE1
:10099000083802400024F40040787D012DE9F84F2A
:1009A00004006ED02078DFF84C93C007A9F104054D
:1009B0004AD009F104000168C1F38101012908D07E
:1009C0000068C0F3810002280AD1D9F80000400273
:1009D00006D52868800337D560680028E1D033E069
:1009E0006068B0F5803F10D0B0F5A02F286810D017
:1009F00020F480302860286820F480202860606817
:100A0000A8B1FFF775FE06460DE0286840F4803077
:100A1000F4E740F480202860F7E700BFFFF768FEA6
:100A2000801B642873D828688003F7D50CE0FFF793
:100A30005FFE064605E000BFFFF75AFE801B6428F4
:100A4000F0D828688003F7D42078DFF8AC828007DC
:100A50004FF0000A3ED5A748001D016811F00C0FA9
:100A600008D00068C0F3810002280BD1D9F800003B
:100A7000400207D42868800716D5E068012800D115
:100A800012E033E1E068B8B10120C8F80000FFF7D8
:100A90002FFE064605E000BFFFF72AFE801B022856
:100AA000C0D828688007F7D52868216920F0F800A9
:100AB00040EAC10028600DE0C8F800A0FFF718FE6A
:100AC000064604E0FFF714FE801B02281FD82868A2
:100AD0008007F7D42078000722D5864F87486169C0
:100AE000703771B101210160FFF702FE064604E094
:100AF000FFF7FEFD801B022809D838688007F7D56C
:100B00000EE0C0F800A0FFF7F3FD064605E082E026
:100B1000FFF7EEFD801B02287DD838688007F7D4E8
:100B20002078400768D5DFF8CCB100270BF13C0BEB
:100B3000DBF80000C0000BD4DBF8001041F080515E
:100B4000CBF80010DBF80000012700F08050009087
:100B50006B4E3068C00510D4306840F4807030604F
:100B6000FFF7C6FD009005E0FFF7C2FD0099401AAF
:100B7000022850D83068C005F6D55E4EA0686C36A5
:100B800001280FD00528306810D020F00100306017
:100B9000306820F004003060A068B8B1FFF7A8FD0D
:100BA00000900FE0306840F00100F4E740F00400EE
:100BB0003060F7E7FFF79CFD0099411A41F2883059
:100BC000814266D830688007F4D50EE0FFF790FDCB
:100BD000009007E0FFF78CFD0099411A41F2883040
:100BE000814256D830688007F4D42FB1DBF800106A
:100BF00021F08051CBF80010A069C8B33D49091D10
:100C00000968C1F3810102294AD00228504607D061
:100C1000C8F8600000E03CE0FFF76AFD04463BE0F6
:100C20004746C8F86000FFF763FD064605E000BFD1
:100C3000FFF75EFD801B02282BD828688001F7D4BF
:100C4000D4E907010843A16A2E4A490802EB014191
:100C5000626A41EA8211084394F82C1040EA01616B
:100C6000C9F8001001203866FFF742FD044606E08F
:100C70003EE000BFFFF73CFD001B022809D82868B2
:100C80008001F7D534E000BFFFF732FD001B0228DA
:100C900002D90320BDE8F88F28688001F4D427E04A
:100CA0000128F7D0D9F80000E26900F480019142F0
:100CB0001CD1226A00F03F01914217D147F6C07162
:100CC000626A0140B1EB821F10D1A26A4FF0FF337C
:100CD00000F4403103EB5202B1EB024F06D194F81D
:100CE0002C1000F07060B0EB016F01D00120D1E753
:100CF0000020CFE70438024000004742800E474200
:100D0000007000400000FFFF10B5401EB0F1807F72
:100D100001D3012010BD4FF0E02460610F21601766
:100D200000F097F80020A06107202061002010BD8E
:100D3000FEE7000070B586B014216846FFF773FB2C
:100D400012480024016841F004010160016801F0CB
:100D500004010591016841F08001016000680C4EBA
:100D600000F080004FF40055059022462946304699
:100D7000FFF7B8FC01200095CDE901046946304633
:100D80000394FFF7B7FB06B070BD00003038024097
:100D900000080240FEE7FEE710B5BF2080F311888F
:100DA000BFF34F8FBFF36F8F00F024FB18B10449DE
:100DB0004FF080500860002080F3118810BD0000C3
:100DC00004ED00E010B592B030216846FFF72BFB30
:100DD00014210CA8FFF727FB17480024016841F0F5
:100DE00080510160006800F0805011901348016844
:100DF00041F4404101600068069400F440401190C5
:100E00000220009001200390102004906846FFF714
:100E1000C5FD08B172B6FEE70F20CDE90C040E94B3
:100E20000F9400210CA81094FFF7ECFC002801D0CF
:100E300072B6FEE712B010BD4038024000700040AC
:100E40000248016841F470010160704788ED00E0DC
:100E5000FEE70907090E002804DB00F1E02080F816
:100E60000014704700F00F0000F1E02080F8141D1E
:100E700070470000054D4FF4005421462846FFF707
:100E800029FCC82000F000FAF7E700000008024043
:100E90001CB5FFF733FCFFF795FFFFF74BFF064943
:100EA0000220CDE900010023E42204A1054800F05E
:100EB00075FA00F001FAFEE7000000204C454430CE
:100EC00000000000750E00082DE9F0411E4C0F4691
:100ED0000546E6682068001D00F070F938B9206802
:100EE00090F82C1001208840216981432161681C01
:100EF00015D1A7B1154922684868906023688268B7
:100F0000DA6022688368121D5A602268121D8260AE
:100F1000206841610868401C0860BDE8F0812068D5
:100F20003544B5424560216805D2E06BBDE8F0412B
:100F3000091D00F064B9A06B091D00F060F9A06AFA
:100F40008542EAD2A562E8E71400002014010020DF
:100F50002DE9F041054600F06BF9364CA068401CC5
:100F6000A0602068344F10B1606940B32DE0256067
:100F7000A068012829D1002606EB860007EB800037
:100F800000F02FF9761C052EF6D32B48643000F0C4
:100F900028F92948783000F024F927488C3000F0EF
:100FA00020F92548A03000F01CF92348B43000F0A7
:100FB00018F921486430A0631430E06305E020682C
:100FC000E96AC06A884200D82560606A0121401C35
:100FD0006062E86A226981401143216100EB800070
:100FE00007EB80004068A8608168E9608268291D7D
:100FF00051608160E86A00EB800007EB8001696165
:1010000057F82010491C47F8201000F01FF96069BC
:1010100000280CD02068E96AC06A884207D20749D4
:101020004FF080500860BFF34F8FBFF36F8FBDE864
:10103000F0810000140000206000002004ED00E0BA
:1010400010B50446006B00F00BF92046BDE81040D7
:1010500000F006B90C4E0D4C12E000BF00F0E8F8AD
:10106000F068C568281D00F0A9F8A068401EA060BF
:101070006068401E606000F0E9F82846FFF7E0FF76
:1010800060680028FCD0E9E700010020140000207F
:101090002DE9F0479A46DDE9097481466FF00303B4
:1010A000206B03EB8202089E104420F00708002505
:1010B00061B1002023180A5C83F834200A5C12B165
:1010C000401C1028F6D384F8435001E084F83450D3
:1010D000052E00D30426201DE66200F08DF804F1F1
:1010E000180000F089F82461C6F105006462A0616F
:1010F000656484F8485052464946404600F048F836
:101100002060002F00D03C60BDE8F0870548816B6F
:10111000096821B1816BC9680968816270474FF025
:10112000FF31FAE714000020BF2080F31188BFF3DD
:101130004F8FBFF36F8FFEE770B504460025400761
:1011400009D004F00700C0F108002044A04201D9F2
:10115000044600E0002400F0D7F80B48416819B9B4
:101160000A4921F00701416054B1026842F2F87364
:101170001119994204D2914202D9436801609D1825
:1011800000F0CAF9284670BD580000203001002048
:1011900010B5031F4FF080741C601B1F21F001016C
:1011A0001960191F044B0B6014390A60091F6FF096
:1011B000020244380A6010BD29110008D0E901324A
:1011C00001699A60D0E901235A604A68824201D1DC
:1011D00082684A60002202610868401E0860086850
:1011E000704700F108014FF0FF32C0E90112C16001
:1011F000016100210160704700210161704730B535
:101200000B685A1C02D000F1080202E0026904E0F7
:101210002246546825689D42FAD953684B6099600C
:101220008A60516008610168491C016030BD00009E
:10123000BF2080F31188BFF34F8FBFF36F8F024839
:101240000168491C01607047540000200349086888
:10125000401E086001D180F31188704754000020BF
:10126000704700004FF0E0200021016181610549D5
:101270004FF47A720968B1FBF2F1491E416107210E
:10128000016170471000002010B5020009D000F085
:101290003BF800211046FFF717FE00F03DF900284B
:1012A00007D104494FF080500860BFF34F8FBFF360
:1012B0006F8F10BD04ED00E07CB50F480025CDE92F
:1012C00000502B4680220DA10E4800F067F80A4C12
:1012D0002C3C01280ED1BF2080F31188BFF34F8F23
:1012E000BFF36F8F4FF0FF30A06201206061E560B7
:1012F00000F034F8206B7CBD4000002049444C4590
:1013000000000000551000080248416B491C416371
:1013100070470000140000200E48416B11B10121FC
:10132000C16170470021C16101690B4AB1FA81F1C5
:10133000C1F11F0101EB810102EB810101F1080301
:101340004A6852684A609A4201D152684A60D1683C
:101350000160704714000020600000200C4810B5A8
:10136000016841F47F010160016841F07F41016043
:10137000FFF778FF074900200860FEF781FF064865
:10138000016841F040410160FEF766FF002010BD9A
:1013900020ED00E05400002034EF00E02DE9FF5F75
:1013A0008346DDE90E87994616468A469000FFF788
:1013B000C3FE05001AD04C20FFF7BEFE040012D079
:1013C00025630021CDE90241CDE900874B46324635
:1013D00051465846FFF75CFE2046FFF7B9FD012055
:1013E00004B0BDE8F09F2846FFF73AFF4FF0FF300A
:1013F000F6E700002DE9F041454C0026606B28B16E
:10140000A069401CA0613046BDE8F081E5686D1C14
:10141000E56008D1A06BE16BA163E063206A401C2A
:101420002062FFF773FEA16A3A488D420FD34FF056
:10143000000EA16B096839B1A16BC968C9684A6817
:10144000954212D2A26202E04FF0FF31A162216800
:10145000C96A01EB810150F82100012800D9012659
:10146000E0690028CFD00126CDE7D1E902724B69AF
:10147000BA60D1E902277A605F680A1D974201D1FC
:10148000CF685F60C1F814E01F687F1E1F60D1F84D
:1014900028C0BCF1000F15D0D1E907379F60D1E912
:1014A00007377B60DCF8047001F118039F4202D11A
:1014B0000B6ACCF80430C1F828E0DCF800305B1E81
:1014C000CCF80030CB6A0127D4F810C09F4047EA1F
:1014D0000C07276103EB830300EB83035B688B60DE
:1014E0009F68CF609F687A609A60CA6A02EB820246
:1014F00000EB82034B6150F822305B1C40F8223035
:10150000C96A2268D26A914293D3012691E700000A
:1015100014000020600000202DE9F041002427463F
:10152000FFF786FE3F4D686B401E6863686B0028BE
:1015300072D1A8683C4B00264FF00108F0BB6BE06D
:10154000D868C468D4E90721A06A9160D4E9071279
:101550005160426804F118018A4201D1216A416058
:10156000A6620168491E0160D4E9022160699160A8
:10157000D4E9021251604268211D8A4201D1E26819
:10158000426066610268521E0260E26AD5F810C0CD
:1015900008FA02F040EA0C00286102EB8200224ABD
:1015A0008C3A02EB80004068A060D0F808C0C4F814
:1015B0000CC0D0F808C0CCF8041000E012E0816044
:1015C000E06A00EB800002EB8001616152F82010BC
:1015D000491C42F82010E06A2968C96A884201D390
:1015E000C5F81C8018680028AAD10CB1FFF78EFD41
:1015F000AC693CB1FFF7FEFE08B1C5F81C80641E63
:10160000F8D1AE61E86938B10849012738070860A8
:10161000BFF34F8FBFF36F8FFFF718FE3846BDE85B
:10162000F081000014000020EC00002004ED00E038
:101630004FF04070E1EE100A70470000000000001B
:101640000000010203040607080900006C160008E8
:101650000000002060000000D4010008CC16000843
:1016600060000020282F0000F001000800000000AA
:101670000100000010000000000000000024F40041
:10168000000000000000000000000000000000005A
:10169000000000000000000000000000000000004A
:1016A000000000000000000000000000000000003A
:1016B0000400000000000000000000000000000026
:0C16C000AAAAAAAA000000000000000076
:040000050800019955
:00000001FF
